{
  "contractName": "DLottery",
  "abi": [
    {
      "constant": true,
      "inputs": [
        {
          "name": "",
          "type": "uint256"
        }
      ],
      "name": "owners",
      "outputs": [
        {
          "name": "",
          "type": "address"
        }
      ],
      "payable": false,
      "stateMutability": "view",
      "type": "function"
    },
    {
      "constant": true,
      "inputs": [],
      "name": "test",
      "outputs": [
        {
          "name": "",
          "type": "uint256"
        }
      ],
      "payable": false,
      "stateMutability": "view",
      "type": "function"
    },
    {
      "inputs": [],
      "payable": false,
      "stateMutability": "nonpayable",
      "type": "constructor"
    },
    {
      "payable": true,
      "stateMutability": "payable",
      "type": "fallback"
    },
    {
      "constant": true,
      "inputs": [],
      "name": "getPotSize",
      "outputs": [
        {
          "name": "",
          "type": "uint256"
        }
      ],
      "payable": false,
      "stateMutability": "view",
      "type": "function"
    },
    {
      "constant": true,
      "inputs": [],
      "name": "getBlocksRemaining",
      "outputs": [
        {
          "name": "",
          "type": "uint256"
        }
      ],
      "payable": false,
      "stateMutability": "view",
      "type": "function"
    },
    {
      "constant": true,
      "inputs": [],
      "name": "getDuration",
      "outputs": [
        {
          "name": "",
          "type": "uint256"
        }
      ],
      "payable": false,
      "stateMutability": "view",
      "type": "function"
    },
    {
      "constant": true,
      "inputs": [],
      "name": "getLastWinner",
      "outputs": [
        {
          "name": "",
          "type": "address"
        }
      ],
      "payable": false,
      "stateMutability": "view",
      "type": "function"
    },
    {
      "constant": true,
      "inputs": [],
      "name": "getLastPot",
      "outputs": [
        {
          "name": "",
          "type": "uint256"
        }
      ],
      "payable": false,
      "stateMutability": "view",
      "type": "function"
    },
    {
      "constant": true,
      "inputs": [],
      "name": "getLastDuration",
      "outputs": [
        {
          "name": "",
          "type": "uint256"
        }
      ],
      "payable": false,
      "stateMutability": "view",
      "type": "function"
    },
    {
      "constant": true,
      "inputs": [],
      "name": "getLastEndBlock",
      "outputs": [
        {
          "name": "",
          "type": "uint256"
        }
      ],
      "payable": false,
      "stateMutability": "view",
      "type": "function"
    },
    {
      "constant": true,
      "inputs": [],
      "name": "getAllTimeBets",
      "outputs": [
        {
          "name": "",
          "type": "uint256"
        }
      ],
      "payable": false,
      "stateMutability": "view",
      "type": "function"
    }
  ],
  "bytecode": "0x6060604052341561000f57600080fd5b606460088190555060006009819055506001600460006101000a81548173ffffffffffffffffffffffffffffffffffffffff021916908373ffffffffffffffffffffffffffffffffffffffff1602179055506001600581905550600a60068190555061008e600a61009364010000000002610440176401000000009004565b610150565b806003819055506003544301600281905550600060019080546100b79291906100bb565b5050565b8280548282559060005260206000209081019282156100fc5760005260206000209182015b828111156100fb5782548255916001019190600101906100e0565b5b509050610109919061010d565b5090565b61014d91905b8082111561014957600081816101000a81549073ffffffffffffffffffffffffffffffffffffffff021916905550600101610113565b5090565b90565b6105298061015f6000396000f3006060604052600436106100a3576000357c0100000000000000000000000000000000000000000000000000000000900463ffffffff16806272369814610135578063025e7c271461015e57806304b509cc146101c15780634658799a146101ea57806356aa8293146102135780637941a0621461023c578063ad2e8c9b14610265578063c5f995191461028e578063f88649a1146102b7578063f8a8fd6d1461030c575b60008090505b3481101561013257600180548060010182816100c591906103ef565b9160005260206000209001600033909190916101000a81548173ffffffffffffffffffffffffffffffffffffffff021916908373ffffffffffffffffffffffffffffffffffffffff16021790555050600160086000828254019250508190555080806001019150506100a9565b50005b341561014057600080fd5b610148610335565b6040518082815260200191505060405180910390f35b341561016957600080fd5b61017f6004808035906020019091905050610342565b604051808273ffffffffffffffffffffffffffffffffffffffff1673ffffffffffffffffffffffffffffffffffffffff16815260200191505060405180910390f35b34156101cc57600080fd5b6101d4610381565b6040518082815260200191505060405180910390f35b34156101f557600080fd5b6101fd61038b565b6040518082815260200191505060405180910390f35b341561021e57600080fd5b610226610395565b6040518082815260200191505060405180910390f35b341561024757600080fd5b61024f61039f565b6040518082815260200191505060405180910390f35b341561027057600080fd5b6102786103ab565b6040518082815260200191505060405180910390f35b341561029957600080fd5b6102a16103b5565b6040518082815260200191505060405180910390f35b34156102c257600080fd5b6102ca6103bf565b604051808273ffffffffffffffffffffffffffffffffffffffff1673ffffffffffffffffffffffffffffffffffffffff16815260200191505060405180910390f35b341561031757600080fd5b61031f6103e9565b6040518082815260200191505060405180910390f35b6000600180549050905090565b60018181548110151561035157fe5b90600052602060002090016000915054906101000a900473ffffffffffffffffffffffffffffffffffffffff1681565b6000600554905090565b6000600654905090565b6000600854905090565b60004360025403905090565b6000600354905090565b6000600754905090565b6000600460009054906101000a900473ffffffffffffffffffffffffffffffffffffffff16905090565b60095481565b81548183558181151161041657818360005260206000209182019101610415919061041b565b5b505050565b61043d91905b80821115610439576000816000905550600101610421565b5090565b90565b80600381905550600354430160028190555060006001908054610464929190610468565b5050565b8280548282559060005260206000209081019282156104a95760005260206000209182015b828111156104a857825482559160010191906001019061048d565b5b5090506104b691906104ba565b5090565b6104fa91905b808211156104f657600081816101000a81549073ffffffffffffffffffffffffffffffffffffffff0219169055506001016104c0565b5090565b905600a165627a7a72305820ffcbe62f15e32214173aaa853f39dd7620a3381e1122624b3aeb101f2bc7ee570029",
  "source": "pragma solidity ^0.4.11;\n\n\ncontract DLottery {\n\n    // current lotto info\n    address[] private empty;\n    address[] public owners;\n    uint private lotteryEndBlock;\n    uint private duration;\n\n    // last lotto\n    address private lastWinner; // winner, pot_size, duration\n    uint private lastPot;\n    uint private lastDuration;\n    uint private lastEndBlock;\n    uint private allTimeBets;\n\n    uint public test;\n\n    // Contract constructor, called when the contract is deployed\n    // When launched, make auctions one day long\n    function DLottery() public {\n        allTimeBets = 100;\n        test = 0;\n        lastWinner = 1;\n        lastPot = 1;\n        lastDuration = 10;\n        commenceLottery(10); // 86400 seconds in one day\n    }\n\n    // buy tickets when eth received\n    function () public payable {\n        for (uint i = 0; i < msg.value; i++) {\n            owners.push(msg.sender);\n            allTimeBets += 1;\n        }\n    }\n\n    /*\n      Interface Functions:\n    */\n    function getPotSize() public view returns (uint) {\n        return owners.length;\n    }\n\n    // Called by dapp to check if the auction is over, and\n    //  triggers closeLottery if so\n    function getBlocksRemaining() public view returns (uint) {\n        return lotteryEndBlock - block.number;\n    }\n\n    // returns duration of this auction in blocks\n    function getDuration() public view returns (uint) {\n        return duration;\n    }\n\n    function getLastWinner() public view returns (address) {\n        return lastWinner;\n    }\n\n    function getLastPot() public view returns (uint) {\n        return lastPot;\n    }\n\n    function getLastDuration() public view returns (uint) {\n        return lastDuration;\n    }\n\n    function getLastEndBlock() public view returns (uint) {\n        return lastEndBlock;\n    }\n\n    function getAllTimeBets() public view returns (uint) {\n        return allTimeBets;\n    }\n\n    // Called when the lottery end event detected\n    function closeLottery() private {\n\n        // if participants, get winner and send winnings\n        if (owners.length > 0) {\n            uint windex = uint(block.blockhash(block.number-1)) % owners.length;\n            address winner = owners[windex];\n            winner.send(lastPot); // send ether to winner\n        }\n\n        // update info because lotto closed\n        lastWinner = winner;\n        lastPot = owners.length;\n        lastDuration = duration;\n        lastEndBlock = block.number;\n\n        // start new lotto\n        commenceLottery(duration);\n    }\n\n    function checkClosed() private {\n        if (block.number >= lotteryEndBlock) {\n            closeLottery();\n        }\n    }\n\n    // Start lottery in constructor and when each lottery ends\n    function commenceLottery(uint durationBlocks) private {\n        // reset params\n        duration = durationBlocks;\n        lotteryEndBlock = block.number + duration;\n        owners = empty; // reset owners\n    }\n}\n",
  "sourcePath": "/Users/eli/Dropbox/Projects/DLottery/contracts/DLottery.sol",
  "compiler": {
    "name": "solc",
    "version": "0.4.19+commit.c4cbbb05.Emscripten.clang"
  },
  "schemaVersion": "1.0.1",
  "updatedAt": "2018-02-26T06:13:21.398Z"
}