{
  "contractName": "DLottery",
  "abi": [
    {
      "constant": true,
      "inputs": [
        {
          "name": "",
          "type": "uint256"
        }
      ],
      "name": "owners",
      "outputs": [
        {
          "name": "",
          "type": "address"
        }
      ],
      "payable": false,
      "stateMutability": "view",
      "type": "function"
    },
    {
      "constant": true,
      "inputs": [],
      "name": "test",
      "outputs": [
        {
          "name": "",
          "type": "uint256"
        }
      ],
      "payable": false,
      "stateMutability": "view",
      "type": "function"
    },
    {
      "inputs": [],
      "payable": false,
      "stateMutability": "nonpayable",
      "type": "constructor"
    },
    {
      "payable": true,
      "stateMutability": "payable",
      "type": "fallback"
    },
    {
      "constant": false,
      "inputs": [
        {
          "name": "tickets",
          "type": "uint256"
        }
      ],
      "name": "buyTickets",
      "outputs": [
        {
          "name": "",
          "type": "uint256"
        }
      ],
      "payable": true,
      "stateMutability": "payable",
      "type": "function"
    },
    {
      "constant": false,
      "inputs": [],
      "name": "getPotSize",
      "outputs": [
        {
          "name": "",
          "type": "uint256"
        }
      ],
      "payable": false,
      "stateMutability": "nonpayable",
      "type": "function"
    },
    {
      "constant": false,
      "inputs": [],
      "name": "getBlocksRemaining",
      "outputs": [
        {
          "name": "",
          "type": "uint256"
        }
      ],
      "payable": false,
      "stateMutability": "nonpayable",
      "type": "function"
    },
    {
      "constant": false,
      "inputs": [],
      "name": "getDuration",
      "outputs": [
        {
          "name": "",
          "type": "uint256"
        }
      ],
      "payable": false,
      "stateMutability": "nonpayable",
      "type": "function"
    },
    {
      "constant": false,
      "inputs": [],
      "name": "getLastWinner",
      "outputs": [
        {
          "name": "",
          "type": "address"
        }
      ],
      "payable": false,
      "stateMutability": "nonpayable",
      "type": "function"
    },
    {
      "constant": false,
      "inputs": [],
      "name": "getLastPot",
      "outputs": [
        {
          "name": "",
          "type": "uint256"
        }
      ],
      "payable": false,
      "stateMutability": "nonpayable",
      "type": "function"
    },
    {
      "constant": false,
      "inputs": [],
      "name": "getLastDuration",
      "outputs": [
        {
          "name": "",
          "type": "uint256"
        }
      ],
      "payable": false,
      "stateMutability": "nonpayable",
      "type": "function"
    },
    {
      "constant": false,
      "inputs": [],
      "name": "getLastEndBlock",
      "outputs": [
        {
          "name": "",
          "type": "uint256"
        }
      ],
      "payable": false,
      "stateMutability": "nonpayable",
      "type": "function"
    },
    {
      "constant": false,
      "inputs": [],
      "name": "getAllTimeBets",
      "outputs": [
        {
          "name": "",
          "type": "uint256"
        }
      ],
      "payable": false,
      "stateMutability": "nonpayable",
      "type": "function"
    }
  ],
  "bytecode": "0x6060604052341561000f57600080fd5b606460088190555060006009819055506001600460006101000a81548173ffffffffffffffffffffffffffffffffffffffff021916908373ffffffffffffffffffffffffffffffffffffffff1602179055506001600581905550600a60068190555061008e600a610093640100000000026105fc176401000000009004565b610150565b806003819055506003544301600281905550600060019080546100b79291906100bb565b5050565b8280548282559060005260206000209081019282156100fc5760005260206000209182015b828111156100fb5782548255916001019190600101906100e0565b5b509050610109919061010d565b5090565b61014d91905b8082111561014957600081816101000a81549073ffffffffffffffffffffffffffffffffffffffff021916905550600101610113565b5090565b90565b6107368061015f6000396000f3006060604052600436106100ae576000357c0100000000000000000000000000000000000000000000000000000000900463ffffffff16806272369814610140578063025e7c271461016957806304b509cc146101cc5780632f366637146101f55780634658799a1461022157806356aa82931461024a5780637941a06214610273578063ad2e8c9b1461029c578063c5f99519146102c5578063f88649a1146102ee578063f8a8fd6d14610343575b60008090505b3481101561013d57600180548060010182816100d09190610624565b9160005260206000209001600033909190916101000a81548173ffffffffffffffffffffffffffffffffffffffff021916908373ffffffffffffffffffffffffffffffffffffffff16021790555050600160086000828254019250508190555080806001019150506100b4565b50005b341561014b57600080fd5b61015361036c565b6040518082815260200191505060405180910390f35b341561017457600080fd5b61018a6004808035906020019091905050610379565b604051808273ffffffffffffffffffffffffffffffffffffffff1673ffffffffffffffffffffffffffffffffffffffff16815260200191505060405180910390f35b34156101d757600080fd5b6101df6103b8565b6040518082815260200191505060405180910390f35b61020b60048080359060200190919050506103c2565b6040518082815260200191505060405180910390f35b341561022c57600080fd5b610234610474565b6040518082815260200191505060405180910390f35b341561025557600080fd5b61025d61047e565b6040518082815260200191505060405180910390f35b341561027e57600080fd5b610286610488565b6040518082815260200191505060405180910390f35b34156102a757600080fd5b6102af610494565b6040518082815260200191505060405180910390f35b34156102d057600080fd5b6102d861049e565b6040518082815260200191505060405180910390f35b34156102f957600080fd5b6103016104a8565b604051808273ffffffffffffffffffffffffffffffffffffffff1673ffffffffffffffffffffffffffffffffffffffff16815260200191505060405180910390f35b341561034e57600080fd5b6103566104d2565b6040518082815260200191505060405180910390f35b6000600180549050905090565b60018181548110151561038857fe5b90600052602060002090016000915054906101000a900473ffffffffffffffffffffffffffffffffffffffff1681565b6000600554905090565b60008034831415156103d057fe5b6103d86104d8565b600090505b8281101561046657600180548060010182816103f99190610624565b9160005260206000209001600033909190916101000a81548173ffffffffffffffffffffffffffffffffffffffff021916908373ffffffffffffffffffffffffffffffffffffffff16021790555050600160086000828254019250508190555080806001019150506103dd565b600180549050915050919050565b6000600654905090565b6000600854905090565b60004360025403905090565b6000600354905090565b6000600754905090565b6000600460009054906101000a900473ffffffffffffffffffffffffffffffffffffffff16905090565b60095481565b600254431015156104ec576104eb6104ee565b5b565b600080600060018054905011156105905760018054905060014303406001900481151561051757fe5b06915060018281548110151561052957fe5b906000526020600020900160009054906101000a900473ffffffffffffffffffffffffffffffffffffffff1690508073ffffffffffffffffffffffffffffffffffffffff166108fc6005549081150290604051600060405180830381858888f19350505050505b80600460006101000a81548173ffffffffffffffffffffffffffffffffffffffff021916908373ffffffffffffffffffffffffffffffffffffffff160217905550600180549050600581905550600354600681905550436007819055506105f86003546105fc565b5050565b80600381905550600354430160028190555060006001908054610620929190610650565b5050565b81548183558181151161064b5781836000526020600020918201910161064a91906106a2565b5b505050565b8280548282559060005260206000209081019282156106915760005260206000209182015b82811115610690578254825591600101919060010190610675565b5b50905061069e91906106c7565b5090565b6106c491905b808211156106c05760008160009055506001016106a8565b5090565b90565b61070791905b8082111561070357600081816101000a81549073ffffffffffffffffffffffffffffffffffffffff0219169055506001016106cd565b5090565b905600a165627a7a723058202b43ecfebd4ebbceb69c135bd13ee4fe83554a482a6ec989a4b602c31e5cbaae0029",
  "source": "pragma solidity ^0.4.11;\n\n\ncontract DLottery {\n\n    // current lotto info\n    address[] private empty;\n    address[] public owners;\n    uint private lotteryEndBlock;\n    uint private duration;\n\n    // last lotto\n    address private lastWinner; // winner, pot_size, duration\n    uint private lastPot;\n    uint private lastDuration;\n    uint private lastEndBlock;\n    uint private allTimeBets;\n\n    uint public test;\n\n    // Contract constructor, called when the contract is deployed\n    // When launched, make auctions one day long\n    function DLottery() public {\n        allTimeBets = 100;\n        test = 0;\n        lastWinner = 1;\n        lastPot = 1;\n        lastDuration = 10;\n        commenceLottery(10); // 86400 seconds in one day\n    }\n\n    // fallback function for when ether received\n    function () payable {\n        for (uint i = 0; i < msg.value; i++) {\n            owners.push(msg.sender);\n            allTimeBets += 1;\n        }\n    }\n\n    /*\n      Interface Functions:\n    */\n    // 1 ticket = 1 wei\n    function buyTickets(uint tickets) public payable returns (uint) {\n        assert(tickets == msg.value);\n        checkClosed();\n        //uint tickets = msg.value; // get wei sent\n\n        // append users address tickets times\n        for (uint i = 0; i < tickets; i++) {\n            owners.push(msg.sender);\n            allTimeBets += 1;\n        }\n        return owners.length;\n    }\n\n    function getPotSize() public returns (uint) {\n        return owners.length;\n    }\n\n    // Called by dapp to check if the auction is over, and\n    //  triggers closeLottery if so\n    function getBlocksRemaining() public returns (uint) {\n        return lotteryEndBlock - block.number;\n    }\n\n    // returns duration of this auction in blocks\n    function getDuration() public returns (uint) {\n        return duration;\n    }\n\n    function getLastWinner() public returns (address) {\n        return lastWinner;\n    }\n\n    function getLastPot() public returns (uint) {\n        return lastPot;\n    }\n\n    function getLastDuration() public returns (uint) {\n        return lastDuration;\n    }\n\n    function getLastEndBlock() public returns (uint) {\n        return lastEndBlock;\n    }\n\n    function getAllTimeBets() public returns (uint) {\n        return allTimeBets;\n    }\n\n    // Called when the lottery end event detected\n    function closeLottery() private {\n\n        // if participants, get winner and send winnings\n        if (owners.length > 0) {\n            uint windex = uint(block.blockhash(block.number-1)) % owners.length;\n            address winner = owners[windex];\n            winner.send(lastPot); // send ether to winner\n        }\n\n        // update info because lotto closed\n        lastWinner = winner;\n        lastPot = owners.length;\n        lastDuration = duration;\n        lastEndBlock = block.number;\n\n        // start new lotto\n        commenceLottery(duration);\n    }\n\n    function checkClosed() private {\n        if (block.number >= lotteryEndBlock) {\n            closeLottery();\n        }\n    }\n\n    // Start lottery in constructor and when each lottery ends\n    function commenceLottery(uint durationBlocks) private {\n        // reset params\n        duration = durationBlocks;\n        lotteryEndBlock = block.number + duration;\n        owners = empty; // reset owners\n    }\n}\n",
  "sourcePath": "/Users/eli/Dropbox/Projects/DLottery/contracts/DLottery.sol",
  "compiler": {
    "name": "solc",
    "version": "0.4.19+commit.c4cbbb05.Emscripten.clang"
  },
  "schemaVersion": "1.0.1",
  "updatedAt": "2018-02-24T21:59:08.789Z"
}